{
  "abi": [
    {
      "inputs": [
        {
          "internalType": "address",
          "name": "_token",
          "type": "address"
        }
      ],
      "name": "TokenNotAllowed",
      "type": "error"
    },
    {
      "anonymous": false,
      "inputs": [
        {
          "indexed": false,
          "internalType": "address",
          "name": "token",
          "type": "address"
        },
        {
          "indexed": false,
          "internalType": "address",
          "name": "collateral",
          "type": "address"
        },
        {
          "indexed": false,
          "internalType": "uint256",
          "name": "tokenAmount",
          "type": "uint256"
        },
        {
          "indexed": false,
          "internalType": "uint256",
          "name": "CollateralAmount",
          "type": "uint256"
        }
      ],
      "name": "CreateRequest",
      "type": "event"
    },
    {
      "anonymous": false,
      "inputs": [
        {
          "indexed": true,
          "internalType": "address",
          "name": "previousOwner",
          "type": "address"
        },
        {
          "indexed": true,
          "internalType": "address",
          "name": "newOwner",
          "type": "address"
        }
      ],
      "name": "OwnershipTransferred",
      "type": "event"
    },
    {
      "anonymous": false,
      "inputs": [
        {
          "indexed": false,
          "internalType": "address",
          "name": "lender",
          "type": "address"
        },
        {
          "indexed": false,
          "internalType": "address",
          "name": "borrower",
          "type": "address"
        },
        {
          "indexed": false,
          "internalType": "uint256",
          "name": "amount",
          "type": "uint256"
        }
      ],
      "name": "lendout",
      "type": "event"
    },
    {
      "anonymous": false,
      "inputs": [
        {
          "indexed": false,
          "internalType": "address",
          "name": "liquidator",
          "type": "address"
        },
        {
          "indexed": false,
          "internalType": "address",
          "name": "liquidateFrom",
          "type": "address"
        },
        {
          "indexed": false,
          "internalType": "uint256",
          "name": "amount",
          "type": "uint256"
        }
      ],
      "name": "liquidateCollateral",
      "type": "event"
    },
    {
      "inputs": [
        {
          "internalType": "address",
          "name": "_token",
          "type": "address"
        },
        {
          "internalType": "address",
          "name": "_priceFeed",
          "type": "address"
        }
      ],
      "name": "allowCollateralToken",
      "outputs": [],
      "stateMutability": "nonpayable",
      "type": "function"
    },
    {
      "inputs": [
        {
          "internalType": "address",
          "name": "_token",
          "type": "address"
        },
        {
          "internalType": "address",
          "name": "_priceFeed",
          "type": "address"
        }
      ],
      "name": "allowToken",
      "outputs": [],
      "stateMutability": "nonpayable",
      "type": "function"
    },
    {
      "inputs": [
        {
          "internalType": "uint256",
          "name": "_duration",
          "type": "uint256"
        },
        {
          "internalType": "uint256",
          "name": "_tokenAmountToBorrow",
          "type": "uint256"
        },
        {
          "internalType": "uint256",
          "name": "_collateralAmount",
          "type": "uint256"
        },
        {
          "internalType": "address",
          "name": "_tokenAddressToBorrow",
          "type": "address"
        },
        {
          "internalType": "address",
          "name": "_tokenAddressForCollateral",
          "type": "address"
        },
        {
          "internalType": "uint256",
          "name": "_interest",
          "type": "uint256"
        }
      ],
      "name": "createRequest",
      "outputs": [],
      "stateMutability": "nonpayable",
      "type": "function"
    },
    {
      "inputs": [
        {
          "internalType": "address",
          "name": "user",
          "type": "address"
        }
      ],
      "name": "getAllDashBoard",
      "outputs": [
        {
          "components": [
            {
              "internalType": "address",
              "name": "borrower",
              "type": "address"
            },
            {
              "internalType": "address",
              "name": "lender",
              "type": "address"
            },
            {
              "internalType": "uint256",
              "name": "tokenBorrowed",
              "type": "uint256"
            },
            {
              "internalType": "uint256",
              "name": "collateral",
              "type": "uint256"
            },
            {
              "internalType": "address",
              "name": "collateralAddressToken",
              "type": "address"
            },
            {
              "internalType": "address",
              "name": "tokenBorrowedAddress",
              "type": "address"
            },
            {
              "internalType": "uint256",
              "name": "_profit",
              "type": "uint256"
            }
          ],
          "internalType": "struct PeerPal.DashBoard[]",
          "name": "dash",
          "type": "tuple[]"
        }
      ],
      "stateMutability": "view",
      "type": "function"
    },
    {
      "inputs": [],
      "name": "getAllRequest",
      "outputs": [
        {
          "components": [
            {
              "internalType": "address",
              "name": "userRequest",
              "type": "address"
            },
            {
              "internalType": "address",
              "name": "lender",
              "type": "address"
            },
            {
              "internalType": "uint256",
              "name": "timestart",
              "type": "uint256"
            },
            {
              "internalType": "uint256",
              "name": "duration",
              "type": "uint256"
            },
            {
              "internalType": "uint256",
              "name": "tokenAmountToBorrow",
              "type": "uint256"
            },
            {
              "internalType": "uint256",
              "name": "collateralAmount",
              "type": "uint256"
            },
            {
              "internalType": "uint256",
              "name": "interest",
              "type": "uint256"
            },
            {
              "internalType": "address",
              "name": "tokenAddressToBorrow",
              "type": "address"
            },
            {
              "internalType": "address",
              "name": "tokenAddressForCollateral",
              "type": "address"
            },
            {
              "internalType": "bool",
              "name": "lended",
              "type": "bool"
            }
          ],
          "internalType": "struct PeerPal.Information[]",
          "name": "infos",
          "type": "tuple[]"
        }
      ],
      "stateMutability": "view",
      "type": "function"
    },
    {
      "inputs": [
        {
          "internalType": "address",
          "name": "_token",
          "type": "address"
        },
        {
          "internalType": "uint256",
          "name": "amount",
          "type": "uint256"
        }
      ],
      "name": "getCollateralTokenValue",
      "outputs": [
        {
          "internalType": "uint256",
          "name": "",
          "type": "uint256"
        }
      ],
      "stateMutability": "view",
      "type": "function"
    },
    {
      "inputs": [
        {
          "internalType": "address",
          "name": "user",
          "type": "address"
        }
      ],
      "name": "getMyRequest",
      "outputs": [
        {
          "components": [
            {
              "internalType": "address",
              "name": "userRequest",
              "type": "address"
            },
            {
              "internalType": "address",
              "name": "lender",
              "type": "address"
            },
            {
              "internalType": "uint256",
              "name": "timestart",
              "type": "uint256"
            },
            {
              "internalType": "uint256",
              "name": "duration",
              "type": "uint256"
            },
            {
              "internalType": "uint256",
              "name": "tokenAmountToBorrow",
              "type": "uint256"
            },
            {
              "internalType": "uint256",
              "name": "collateralAmount",
              "type": "uint256"
            },
            {
              "internalType": "uint256",
              "name": "interest",
              "type": "uint256"
            },
            {
              "internalType": "address",
              "name": "tokenAddressToBorrow",
              "type": "address"
            },
            {
              "internalType": "address",
              "name": "tokenAddressForCollateral",
              "type": "address"
            },
            {
              "internalType": "bool",
              "name": "lended",
              "type": "bool"
            }
          ],
          "internalType": "struct PeerPal.Information[]",
          "name": "infos",
          "type": "tuple[]"
        }
      ],
      "stateMutability": "view",
      "type": "function"
    },
    {
      "inputs": [
        {
          "internalType": "address",
          "name": "_token",
          "type": "address"
        },
        {
          "internalType": "uint256",
          "name": "amount",
          "type": "uint256"
        }
      ],
      "name": "getTokenValue",
      "outputs": [
        {
          "internalType": "uint256",
          "name": "",
          "type": "uint256"
        }
      ],
      "stateMutability": "view",
      "type": "function"
    },
    {
      "inputs": [
        {
          "internalType": "address",
          "name": "_token",
          "type": "address"
        }
      ],
      "name": "isCollateralTokenListed",
      "outputs": [
        {
          "internalType": "bool",
          "name": "",
          "type": "bool"
        }
      ],
      "stateMutability": "view",
      "type": "function"
    },
    {
      "inputs": [
        {
          "internalType": "address",
          "name": "_token",
          "type": "address"
        }
      ],
      "name": "isTokenListed",
      "outputs": [
        {
          "internalType": "bool",
          "name": "",
          "type": "bool"
        }
      ],
      "stateMutability": "view",
      "type": "function"
    },
    {
      "inputs": [
        {
          "internalType": "uint256",
          "name": "",
          "type": "uint256"
        }
      ],
      "name": "l_allowedCollateralTokens",
      "outputs": [
        {
          "internalType": "address",
          "name": "",
          "type": "address"
        }
      ],
      "stateMutability": "view",
      "type": "function"
    },
    {
      "inputs": [
        {
          "internalType": "uint256",
          "name": "",
          "type": "uint256"
        }
      ],
      "name": "l_allowedTokens",
      "outputs": [
        {
          "internalType": "address",
          "name": "",
          "type": "address"
        }
      ],
      "stateMutability": "view",
      "type": "function"
    },
    {
      "inputs": [
        {
          "internalType": "address",
          "name": "",
          "type": "address"
        },
        {
          "internalType": "address",
          "name": "",
          "type": "address"
        }
      ],
      "name": "l_collateraldeposit",
      "outputs": [
        {
          "internalType": "uint256",
          "name": "",
          "type": "uint256"
        }
      ],
      "stateMutability": "view",
      "type": "function"
    },
    {
      "inputs": [
        {
          "internalType": "uint256",
          "name": "",
          "type": "uint256"
        }
      ],
      "name": "l_createRequest",
      "outputs": [
        {
          "internalType": "address",
          "name": "userRequest",
          "type": "address"
        },
        {
          "internalType": "address",
          "name": "lender",
          "type": "address"
        },
        {
          "internalType": "uint256",
          "name": "timestart",
          "type": "uint256"
        },
        {
          "internalType": "uint256",
          "name": "duration",
          "type": "uint256"
        },
        {
          "internalType": "uint256",
          "name": "tokenAmountToBorrow",
          "type": "uint256"
        },
        {
          "internalType": "uint256",
          "name": "collateralAmount",
          "type": "uint256"
        },
        {
          "internalType": "uint256",
          "name": "interest",
          "type": "uint256"
        },
        {
          "internalType": "address",
          "name": "tokenAddressToBorrow",
          "type": "address"
        },
        {
          "internalType": "address",
          "name": "tokenAddressForCollateral",
          "type": "address"
        },
        {
          "internalType": "bool",
          "name": "lended",
          "type": "bool"
        }
      ],
      "stateMutability": "view",
      "type": "function"
    },
    {
      "inputs": [
        {
          "internalType": "uint256",
          "name": "",
          "type": "uint256"
        }
      ],
      "name": "l_myDashBoard",
      "outputs": [
        {
          "internalType": "address",
          "name": "borrower",
          "type": "address"
        },
        {
          "internalType": "address",
          "name": "lender",
          "type": "address"
        },
        {
          "internalType": "uint256",
          "name": "tokenBorrowed",
          "type": "uint256"
        },
        {
          "internalType": "uint256",
          "name": "collateral",
          "type": "uint256"
        },
        {
          "internalType": "address",
          "name": "collateralAddressToken",
          "type": "address"
        },
        {
          "internalType": "address",
          "name": "tokenBorrowedAddress",
          "type": "address"
        },
        {
          "internalType": "uint256",
          "name": "_profit",
          "type": "uint256"
        }
      ],
      "stateMutability": "view",
      "type": "function"
    },
    {
      "inputs": [
        {
          "internalType": "address",
          "name": "",
          "type": "address"
        },
        {
          "internalType": "address",
          "name": "",
          "type": "address"
        }
      ],
      "name": "l_tokenBorrow",
      "outputs": [
        {
          "internalType": "uint256",
          "name": "",
          "type": "uint256"
        }
      ],
      "stateMutability": "view",
      "type": "function"
    },
    {
      "inputs": [
        {
          "internalType": "address",
          "name": "",
          "type": "address"
        }
      ],
      "name": "l_tokenCollateralPriceFeed",
      "outputs": [
        {
          "internalType": "address",
          "name": "",
          "type": "address"
        }
      ],
      "stateMutability": "view",
      "type": "function"
    },
    {
      "inputs": [
        {
          "internalType": "address",
          "name": "",
          "type": "address"
        },
        {
          "internalType": "address",
          "name": "",
          "type": "address"
        }
      ],
      "name": "l_tokenDeposit",
      "outputs": [
        {
          "internalType": "uint256",
          "name": "",
          "type": "uint256"
        }
      ],
      "stateMutability": "view",
      "type": "function"
    },
    {
      "inputs": [
        {
          "internalType": "address",
          "name": "",
          "type": "address"
        }
      ],
      "name": "l_tokenPriceFeed",
      "outputs": [
        {
          "internalType": "address",
          "name": "",
          "type": "address"
        }
      ],
      "stateMutability": "view",
      "type": "function"
    },
    {
      "inputs": [
        {
          "internalType": "uint256",
          "name": "_index",
          "type": "uint256"
        }
      ],
      "name": "lend",
      "outputs": [],
      "stateMutability": "payable",
      "type": "function"
    },
    {
      "inputs": [
        {
          "internalType": "uint256",
          "name": "_index",
          "type": "uint256"
        }
      ],
      "name": "liquidate",
      "outputs": [],
      "stateMutability": "nonpayable",
      "type": "function"
    },
    {
      "inputs": [],
      "name": "owner",
      "outputs": [
        {
          "internalType": "address",
          "name": "",
          "type": "address"
        }
      ],
      "stateMutability": "view",
      "type": "function"
    },
    {
      "inputs": [],
      "name": "renounceOwnership",
      "outputs": [],
      "stateMutability": "nonpayable",
      "type": "function"
    },
    {
      "inputs": [
        {
          "internalType": "uint256",
          "name": "_index",
          "type": "uint256"
        }
      ],
      "name": "repay",
      "outputs": [],
      "stateMutability": "payable",
      "type": "function"
    },
    {
      "inputs": [
        {
          "internalType": "address",
          "name": "newOwner",
          "type": "address"
        }
      ],
      "name": "transferOwnership",
      "outputs": [],
      "stateMutability": "nonpayable",
      "type": "function"
    }
  ],
  "bytecode": {
    "object": "0x608060405234801561001057600080fd5b5061001a33610023565b60018055610073565b600080546001600160a01b038381166001600160a01b0319831681178455604051919092169283917f8be0079c531659141344cd1fd0a4f28419497f9722a3daafe3b4186f6b6457e09190a35050565b611f00806100826000396000f3fe6080604052600436106101665760003560e01c80636d34cd17116100d15780639ed746911161008a578063ca68867b11610064578063ca68867b146105e0578063e69ec65314610600578063f2fde38b14610620578063fddd27db1461064057600080fd5b80639ed7469114610568578063a6aa57ce14610595578063ab1d5bab146105a857600080fd5b80636d34cd1714610485578063715018a6146104a55780637ab4ccad146104ba57806381337681146104f25780638bf9fbb11461052a5780638da5cb5b1461054a57600080fd5b806340210cb51161012357806340210cb51461025c578063415f12401461030b57806346be314f1461032b578063481da3751461035b578063545569ba1461043a57806363037f161461044f57600080fd5b80630897ef321461016b57806321fcbf57146101a157806328b1798a146101c357806336bcfa53146101f1578063371fd8e6146102295780633f9796991461023c575b600080fd5b34801561017757600080fd5b5061018b610186366004611b92565b610676565b6040516101989190611bad565b60405180910390f35b3480156101ad57600080fd5b506101c16101bc366004611c64565b610826565b005b3480156101cf57600080fd5b506101e36101de366004611c97565b610897565b604051908152602001610198565b3480156101fd57600080fd5b5061021161020c366004611cc1565b610934565b6040516001600160a01b039091168152602001610198565b6101c1610237366004611cc1565b61095e565b34801561024857600080fd5b50610211610257366004611cc1565b610b09565b34801561026857600080fd5b506102c5610277366004611cc1565b600d6020526000908152604090208054600182015460028301546003840154600485015460058601546006909601546001600160a01b03958616969486169593949293918216929091169087565b604080516001600160a01b039889168152968816602088015286019490945260608501929092528416608084015290921660a082015260c081019190915260e001610198565b34801561031757600080fd5b506101c1610326366004611cc1565b610b19565b34801561033757600080fd5b5061034b610346366004611b92565b610cd9565b6040519015158152602001610198565b34801561036757600080fd5b506103dc610376366004611cc1565b600b602052600090815260409020805460018201546002830154600384015460048501546005860154600687015460078801546008909801546001600160a01b03978816989688169795969495939492939192821691811690600160a01b900460ff168a565b604080516001600160a01b039b8c168152998b1660208b01528901979097526060880195909552608087019390935260a086019190915260c0850152841660e084015290921661010082015290151561012082015261014001610198565b34801561044657600080fd5b5061018b610d40565b34801561045b57600080fd5b5061021161046a366004611b92565b6002602052600090815260409020546001600160a01b031681565b34801561049157600080fd5b506101e36104a0366004611c97565b610ef4565b3480156104b157600080fd5b506101c1610f50565b3480156104c657600080fd5b506101e36104d5366004611c64565b600760209081526000928352604080842090915290825290205481565b3480156104fe57600080fd5b506101e361050d366004611c64565b600960209081526000928352604080842090915290825290205481565b34801561053657600080fd5b506101c1610545366004611cda565b610f64565b34801561055657600080fd5b506000546001600160a01b0316610211565b34801561057457600080fd5b50610588610583366004611b92565b611262565b6040516101989190611d32565b6101c16105a3366004611cc1565b611416565b3480156105b457600080fd5b506101e36105c3366004611c64565b600860209081526000928352604080842090915290825290205481565b3480156105ec57600080fd5b506101c16105fb366004611c64565b6118a2565b34801561060c57600080fd5b5061034b61061b366004611b92565b611913565b34801561062c57600080fd5b506101c161063b366004611b92565b611971565b34801561064c57600080fd5b5061021161065b366004611b92565b6003602052600090815260409020546001600160a01b031681565b60606000805b600a548110156106c5576000818152600b60205260409020546001600160a01b038086169116036106b5576106b28260016119e7565b91505b6106be81611dcf565b905061067c565b508067ffffffffffffffff8111156106df576106df611de8565b60405190808252806020026020018201604052801561071857816020015b610705611afd565b8152602001906001900390816106fd5790505b5091506000805b600a5481101561081e576000818152600b60205260409020546001600160a01b0380871691160361080e576000818152600b602090815260409182902082516101408101845281546001600160a01b03908116825260018301548116938201939093526002820154938101939093526003810154606084015260048101546080840152600581015460a0840152600681015460c08401526007810154821660e084015260080154908116610100830152600160a01b900460ff16151561012082015284518590849081106107f5576107f5611dfe565b602090810291909101015261080b8260016119e7565b91505b61081781611dcf565b905061071f565b505050919050565b61082e6119fa565b6001600160a01b0391821660008181526002602052604081208054949093166001600160a01b0319948516179092556004805460018101825592527f8a35acfbc15ff81a39ae7d344fd709f28e8600b4aa8c65c6b64bfe7fe36bd19b9091018054909216179055565b6001600160a01b03808316600090815260036020526040808220548151633fabe5a360e21b81529151929316918391839163feaf968c9160048082019260a0929091908290030181865afa1580156108f3573d6000803e3d6000fd5b505050506040513d601f19601f820116820180604052508101906109179190611e2e565b50505091505080846109299190611e7e565b925050505b92915050565b6005818154811061094457600080fd5b6000918252602090912001546001600160a01b0316905081565b6000818152600b60205260408120600681015460048201549192916109839190611e95565b90508034146109cc5760405162461bcd60e51b815260206004820152601060248201526f1a5b98dbdc9c9958dd08185b5bdd5b9d60821b60448201526064015b60405180910390fd5b60018201546001600160a01b0316610a155760405162461bcd60e51b815260206004820152600c60248201526b6e756c6c206164647265737360a01b60448201526064016109c3565b60018201546040516001600160a01b039091169082156108fc029083906000818181858888f19350505050158015610a51573d6000803e3d6000fd5b5060048281015433600090815260096020908152604080832060078801546001600160a01b039081168552925291829020805493909303909255600885015485546005870154925163a9059cbb60e01b8152908416948101949094526024840191909152169063a9059cbb906044016020604051808303816000875af1158015610adf573d6000803e3d6000fd5b505050506040513d601f19601f82011682018060405250810190610b039190611ea8565b50505050565b6004818154811061094457600080fd5b6000818152600b60205260409020600101546001600160a01b03163314610b825760405162461bcd60e51b815260206004820152601d60248201527f6f6e6c7920746865206c656e6465722063616e206c697175696461746500000060448201526064016109c3565b6000818152600b60205260409020600301544211610be25760405162461bcd60e51b815260206004820181905260248201527f63616e206c6971756964617465206f6e20657870697265206475726174696f6e60448201526064016109c3565b6000818152600b60205260409081902060088101546001820154600590920154925163a9059cbb60e01b81526001600160a01b0392831660048201526024810193909352169063a9059cbb906044016020604051808303816000875af1158015610c50573d6000803e3d6000fd5b505050506040513d601f19601f82011682018060405250810190610c749190611ea8565b506000818152600b6020908152604091829020805460059091015483513381526001600160a01b0390921692820192909252918201527e953724b3ec8b8585a4b149a663f0556e743986da6e4214f058c3364b743f169060600160405180910390a150565b6000805b600554811015610d3757826001600160a01b031660058281548110610d0457610d04611dfe565b6000918252602090912001546001600160a01b031603610d275750600192915050565b610d3081611dcf565b9050610cdd565b50600092915050565b60606000805b600a54811015610d92576000818152600b6020526040812060080154600160a01b900460ff1615159003610d8257610d7f8260016119e7565b91505b610d8b81611dcf565b9050610d46565b508067ffffffffffffffff811115610dac57610dac611de8565b604051908082528060200260200182016040528015610de557816020015b610dd2611afd565b815260200190600190039081610dca5790505b5091506000805b600a54811015610eee576000818152600b6020526040812060080154600160a01b900460ff1615159003610ede576000818152600b602090815260409182902082516101408101845281546001600160a01b03908116825260018301548116938201939093526002820154938101939093526003810154606084015260048101546080840152600581015460a0840152600681015460c08401526007810154821660e084015260080154908116610100830152600160a01b900460ff1615156101208201528451859084908110610ec557610ec5611dfe565b6020908102919091010152610edb8260016119e7565b91505b610ee781611dcf565b9050610dec565b50505090565b6001600160a01b03808316600090815260026020526040808220548151633fabe5a360e21b81529151929316918391839163feaf968c9160048082019260a0929091908290030181865afa1580156108f3573d6000803e3d6000fd5b610f586119fa565b610f626000611a54565b565b610f6c611aa4565b610f7583611913565b15156001148015610f8a5750610f8a82610cd9565b610fca5760405162461bcd60e51b81526020600482015260116024820152701d1bdad95b881b9bdd08185b1b1bddd959607a1b60448201526064016109c3565b610fd48386610ef4565b610fde8386610897565b116110205760405162461bcd60e51b8152602060048201526012602482015271636f6c6c61746572616c206973206c65737360701b60448201526064016109c3565b600a546040805161014081018252338152600060208201524291810182905290606082019061104f908a611e95565b81526020808201899052604080830189905260608084018790526001600160a01b0389811660808087019190915289821660a0808801829052600060c09889018190528a8152600b8852869020895181549086166001600160a01b0319918216178255978a0151600182018054918716918a169190911790558987015160028201559489015160038601559188015160048086019190915591880151600585015595870151600684015560e0870151600784018054918416919096161790945561010086015160089092018054610120909701511515600160a01b026001600160a81b031990971692909116919091179490941790935591516323b872dd60e01b8152339281019290925230602483015260448201879052906323b872dd906064016020604051808303816000875af1158015611190573d6000803e3d6000fd5b505050506040513d601f19601f820116820180604052508101906111b49190611ea8565b503360009081526009602090815260408083206001600160a01b0387168452909152812080548792906111e8908490611e95565b9091555050600a546111fb9060016119e7565b600a55604080516001600160a01b03808716825285166020820152908101879052606081018690527f3108cfb688bceda7d54bcd967dc13b27211a9354e686be9d68e7a3367c2030469060800160405180910390a15061125a60018055565b505050505050565b60606000805b600c548110156112b4576000818152600d60205260409020600101546001600160a01b038086169116036112a4576112a18260016119e7565b91505b6112ad81611dcf565b9050611268565b508067ffffffffffffffff8111156112ce576112ce611de8565b60405190808252806020026020018201604052801561133557816020015b6040805160e08101825260008082526020808301829052928201819052606082018190526080820181905260a0820181905260c082015282526000199092019101816112ec5790505b5091506000805b600c5481101561081e576000818152600d60205260409020600101546001600160a01b03808716911603611406576000818152600d6020908152604091829020825160e08101845281546001600160a01b039081168252600183015481169382019390935260028201549381019390935260038101546060840152600481015482166080840152600581015490911660a08301526006015460c082015284518590849081106113ed576113ed611dfe565b60209081029190910101526114038260016119e7565b91505b61140f81611dcf565b905061133c565b61141e611aa4565b6000818152600b602052604090206004810154341461146e5760405162461bcd60e51b815260206004820152600c60248201526b1ddc9bdb99c8185b5bdd5b9d60a21b60448201526064016109c3565b805460048201546040516001600160a01b039092169181156108fc0291906000818181858888f193505050501580156114ab573d6000803e3d6000fd5b5060006040518061014001604052808360000160009054906101000a90046001600160a01b03166001600160a01b03168152602001336001600160a01b0316815260200183600201548152602001836003015481526020018360040154815260200183600501548152602001836006015481526020018360070160009054906101000a90046001600160a01b03166001600160a01b031681526020018360080160009054906101000a90046001600160a01b03166001600160a01b0316815260200160011515815250905080600b600085815260200190815260200160002060008201518160000160006101000a8154816001600160a01b0302191690836001600160a01b0316021790555060208201518160010160006101000a8154816001600160a01b0302191690836001600160a01b0316021790555060408201518160020155606082015181600301556080820151816004015560a0820151816005015560c0820151816006015560e08201518160070160006101000a8154816001600160a01b0302191690836001600160a01b031602179055506101008201518160080160006101000a8154816001600160a01b0302191690836001600160a01b031602179055506101208201518160080160146101000a81548160ff0219169083151502179055509050506000600c5490506040518060e001604052808460000160009054906101000a90046001600160a01b03166001600160a01b03168152602001336001600160a01b0316815260200184600401548152602001846005015481526020018460080160009054906101000a90046001600160a01b03166001600160a01b031681526020018460070160009054906101000a90046001600160a01b03166001600160a01b031681526020018460060154815250600d600083815260200190815260200160002060008201518160000160006101000a8154816001600160a01b0302191690836001600160a01b0316021790555060208201518160010160006101000a8154816001600160a01b0302191690836001600160a01b03160217905550604082015181600201556060820151816003015560808201518160040160006101000a8154816001600160a01b0302191690836001600160a01b0316021790555060a08201518160050160006101000a8154816001600160a01b0302191690836001600160a01b0316021790555060c082015181600601559050506118426001600c546119e790919063ffffffff16565b600c5582546004840154604080513381526001600160a01b0390931660208401528201527f31d8539ea751f59ed6783ed90280f8d45d49e895c0e40f07d81f1a991aa924a79060600160405180910390a150505061189f60018055565b50565b6118aa6119fa565b6001600160a01b0391821660008181526003602052604081208054949093166001600160a01b0319948516179092556005805460018101825592527f036b6384b5eca791c62761152d0c79bb0604c104a5fb6f4eb0703f3154bb3db09091018054909216179055565b6000805b600454811015610d3757826001600160a01b03166004828154811061193e5761193e611dfe565b6000918252602090912001546001600160a01b0316036119615750600192915050565b61196a81611dcf565b9050611917565b6119796119fa565b6001600160a01b0381166119de5760405162461bcd60e51b815260206004820152602660248201527f4f776e61626c653a206e6577206f776e657220697320746865207a65726f206160448201526564647265737360d01b60648201526084016109c3565b61189f81611a54565b60006119f38284611e95565b9392505050565b6000546001600160a01b03163314610f625760405162461bcd60e51b815260206004820181905260248201527f4f776e61626c653a2063616c6c6572206973206e6f7420746865206f776e657260448201526064016109c3565b600080546001600160a01b038381166001600160a01b0319831681178455604051919092169283917f8be0079c531659141344cd1fd0a4f28419497f9722a3daafe3b4186f6b6457e09190a35050565b600260015403611af65760405162461bcd60e51b815260206004820152601f60248201527f5265656e7472616e637947756172643a207265656e7472616e742063616c6c0060448201526064016109c3565b6002600155565b60405180610140016040528060006001600160a01b0316815260200160006001600160a01b03168152602001600081526020016000815260200160008152602001600081526020016000815260200160006001600160a01b0316815260200160006001600160a01b031681526020016000151581525090565b80356001600160a01b0381168114611b8d57600080fd5b919050565b600060208284031215611ba457600080fd5b6119f382611b76565b602080825282518282018190526000919060409081850190868401855b82811015611c5757815180516001600160a01b039081168652878201518116888701528682015187870152606080830151908701526080808301519087015260a0808301519087015260c0808301519087015260e0808301518216908701526101008083015190911690860152610120908101511515908501526101409093019290850190600101611bca565b5091979650505050505050565b60008060408385031215611c7757600080fd5b611c8083611b76565b9150611c8e60208401611b76565b90509250929050565b60008060408385031215611caa57600080fd5b611cb383611b76565b946020939093013593505050565b600060208284031215611cd357600080fd5b5035919050565b60008060008060008060c08789031215611cf357600080fd5b863595506020870135945060408701359350611d1160608801611b76565b9250611d1f60808801611b76565b915060a087013590509295509295509295565b602080825282518282018190526000919060409081850190868401855b82811015611c5757815180516001600160a01b0390811686528782015181168887015286820151878701526060808301519087015260808083015182169087015260a0808301519091169086015260c0908101519085015260e09093019290850190600101611d4f565b634e487b7160e01b600052601160045260246000fd5b600060018201611de157611de1611db9565b5060010190565b634e487b7160e01b600052604160045260246000fd5b634e487b7160e01b600052603260045260246000fd5b805169ffffffffffffffffffff81168114611b8d57600080fd5b600080600080600060a08688031215611e4657600080fd5b611e4f86611e14565b9450602086015193506040860151925060608601519150611e7260808701611e14565b90509295509295909350565b808202811582820484141761092e5761092e611db9565b8082018082111561092e5761092e611db9565b600060208284031215611eba57600080fd5b815180151581146119f357600080fdfea2646970667358221220244dbc145388d31dfa2030bb5f9ff1e7830838b70a1e5dcf40c9792ee01f9b3164736f6c63430008150033",
    "linkReferences": {}
  },
  "methodIdentifiers": {
    "allowCollateralToken(address,address)": "ca68867b",
    "allowToken(address,address)": "21fcbf57",
    "createRequest(uint256,uint256,uint256,address,address,uint256)": "8bf9fbb1",
    "getAllDashBoard(address)": "9ed74691",
    "getAllRequest()": "545569ba",
    "getCollateralTokenValue(address,uint256)": "28b1798a",
    "getMyRequest(address)": "0897ef32",
    "getTokenValue(address,uint256)": "6d34cd17",
    "isCollateralTokenListed(address)": "46be314f",
    "isTokenListed(address)": "e69ec653",
    "l_allowedCollateralTokens(uint256)": "36bcfa53",
    "l_allowedTokens(uint256)": "3f979699",
    "l_collateraldeposit(address,address)": "81337681",
    "l_createRequest(uint256)": "481da375",
    "l_myDashBoard(uint256)": "40210cb5",
    "l_tokenBorrow(address,address)": "7ab4ccad",
    "l_tokenCollateralPriceFeed(address)": "fddd27db",
    "l_tokenDeposit(address,address)": "ab1d5bab",
    "l_tokenPriceFeed(address)": "63037f16",
    "lend(uint256)": "a6aa57ce",
    "liquidate(uint256)": "415f1240",
    "owner()": "8da5cb5b",
    "renounceOwnership()": "715018a6",
    "repay(uint256)": "371fd8e6",
    "transferOwnership(address)": "f2fde38b"
  },
  "id": 21
}